:060000000A128A110C280F
:10000800FE00030EF0000A08F1000A128A11942873
:100018000A128A110F280A128A11AF200A128A11AD
:10002800FB00FA0183010A128A114828F700F80137
:10003800F90139287808770784000A128A11842080
:100048000A128A110A128A11A4200A128A11073088
:10005800F6007D30F500F50B2F28F60B2F28013020
:10006800F8070318F90A0030F9077908803AF5000B
:100078007408803A7502031D432873087802031C2C
:10008800462847281E2808008316031307178717D2
:1000980088010A128A116E200A128A110A30F300A6
:1000A8000030F40001300A128A111A200A128A114B
:1000B8004D3083120313A2001930A1004F30A00065
:1000C800A00B6428A10B6428A20B642852280A12EA
:1000D8008A110C282030831603139800903083125D
:1000E8000313980020308316031399008312031317
:1000F8000C128C12831603138C160B178B1708001F
:1001080000308A000408840A820700344F346C34B3
:10011800613420344D3475346E3464346F340034B3
:10012800831203138C1E99289A289D281A08FA000E
:100138000C0871088A00700E8300FE0E7E0E0900FE
:10014800F20072088312031399000C1EAC28AD2824
:08015800A9280C120800013473
:02400E007A3FF7
:00000001FF
