:100000000A128A11F52F00308A000408840A820738
:1000100000344F346C34613420344D3475346E34D4
:0600200064346F3400346B
:100F0A000134F00070088312031399000C1E8E2F0F
:100F1A008F2F8B2F0C120800203083160313980092
:100F2A00903083120313980020308316031399001C
:100F3A00831203138C120C1208008316031307176B
:100F4A00871788010A128A1191270A128A110A3010
:100F5A00F1000030F20001300A128A11C7270A1282
:100F6A008A114D30FA001930F9004F30F800F80BA9
:100F7A00BC2FF90BBC2FFA0BBC2FC32FAC2F0A12B4
:100F8A008A110028F500F601F701E62F76087507A1
:100F9A0084000A128A1103200A128A110A128A117B
:100FAA0086270A128A110730F4007D30F300F30B0A
:100FBA00DC2FF40BDC2F0130F6070318F70A003098
:100FCA00F7077708803AF3007208803A7302031D24
:100FDA00F02F71087602031CF32FF42FCB2F080091
:100FEA000A128A1185270A128A11FC00FB01830161
:060FFA000A128A11A22F69
:02400E007A3FF7
:00000001FF
