:060000000A128A110C280F
:10000800FE00030EF1000A08F2000A128A111F28E6
:100018000A128A110F280A128A11BF200A128A119D
:10002800F7000A128A11C0200A128A11F800830107
:100038000A128A116428831203138C1E2428252887
:100048005D280A128A11B6200A128A11F800831252
:100058000313060A031931283328013034280030E5
:10006800F0006130780603193A283C2801303D2811
:1000780000307005003803194228432844288601B7
:100088000608031948284A2801304B280030F00098
:10009800623078060319512853280130542800305B
:1000A80070050038031959285A285C28FF30860043
:1000B8008C1272088A00710E8300FE0E7E0E0900F3
:1000C8008316031307178717860183120313860104
:1000D8000A128A119A200A128A1178080A128A11B9
:1000E800AB200A128A114D30F6001930F5004F3056
:1000F800F400F40B7D28F50B7D28F60B7D28842869
:1001080071280A128A110C2800308A000408840A0F
:1001180082070034483465346C346C346F342034CE
:1001280057346F3472346C3464340034203083169E
:10013800031398009030831203139800203083161D
:1001480003139900C0308B0020308C000800F300A6
:1001580073088312031399000C1EB328B428B0281F
:100168000C120800831203138C1EBB28BC28B62867
:0A0178008C121A0808000134333419
:02400E007A3FF7
:00000001FF
