:060000000A128A110C280F
:10000800FE00030EF3000A08F4000A128A112928D8
:100018000A128A110F2883133230FD000130FE00C6
:100028003930FF00203084000A128A112A210A126E
:100038008A110A128A1170210A128A11F800B9016C
:10004800BA0183010A128A11C528831203138C1E70
:100058002E282F2866280A128A1167210A128A1167
:10006800F8008312031386183A283C2801303D28EB
:100078000030F0006630780603194328452801301F
:10008800462800307005003803194B284C284D28A5
:100098008610861C50285228013053280030F00062
:1000A8006E307806031959285B2801305C28003027
:1000B8007005003803196128622863288614BA017C
:1000C800BA0A8C128B1C69286A287B280330F20034
:1000D8000830F1007730F000F00B7028F10B702831
:1000E800F20B702883120313B901B90A8B10740834
:1000F8008A00730E8300FE0E7E0E0900F601F701DA
:10010800B4287608831203133207B7003308B60001
:100118000318B60AF61F9128B6038312031336088C
:10012800B8003808FF00370884000A128A11032132
:100138000A128A110A128A115C210A128A110730DE
:1001480083120313B7007C30B600B60BA928B70B8F
:10015800A92800000130F6070318F70A0030F7074E
:100168007708803A83120313B6003508803A3602BE
:10017800031DC02834087602031CC328C428852818
:1001880008008316031307178717860183120313C2
:1001980086010A128A114B210A128A110B16831240
:1001A80003133A080319D928DA28EA280130B200DB
:1001B8008030B3001230B4000030B5000A128A1142
:1001C80082200A128A1183120313BA01390803190B
:1001D800EE28EF28D3282030B2000030B3001230C8
:1001E800B4000030B5000A128A1182200A128A115E
:1001F80083120313B901D3280A128A110C28FF1B92
:100208000D2983137F1883170008840A0319FF0A2E
:10021800080001308A000408840A820700344D343B
:1002280065346E3473346134673465346D34203426
:1002380072346534633465346234693464346134E7
:100248000A3400347E088A007F0882000A128A1164
:1002580026210A128A118000840A04087D060319DF
:100268000034FF0A0319FE0A2A2942344F34543451
:1002780041344F3420345034523445345334533499
:1002880049344F344E34413444344F340A342030E6
:1002980083160313980090308312031398002030BC
:1002A800831603139900C0308B0020308C0008009F
:1002B800F50075088312031399000C1E642965293B
:1002C80061290C120800831203138C1E6C296D29F6
:0A02D80067298C121A08080033345D
:02400E007A3FF7
:00000001FF
